:030000000202CC2D
:0C02CC00787FE4F6D8FD75812002031352
:100436000080009000A000B000C000D000E000F0F6
:1004460000FF3F065B4F666D7D077F6F777C395EE9
:0A04560079714040201008040201F3
:1004F900020B0000C102C183C100C1010211000049
:0405090002130000D9
:10046000D2AAD2ABD2AF751980751A0275158075F4
:100470001604750880750901750DA0750E00750AC2
:080480000A75100AE4F51822C8
:1004E300751300751405758901758C3C758AB0D236
:0604F300AFD2A9D28C2259
:03000B0002048864
:10048800C0E0758C3C758AB00512E5127002051142
:1004980064144511700CF511F512E5141514700269
:0504A8001513D0E03245
:1004C900EF1FAA0670011E4A600F7C007D64ED4C87
:0904D90060EEED1D70F81C80F5C9
:0104E20022F7
:1002280020901F1203EA209019C3E50C9408E50BEF
:100238009400500B300208050CE50C7002050B30D9
:1002480090FD20911F1203EA209119D3E50C940028
:10025800E50B9400400B300208E50C150C700215F4
:100268000B3091FD20921D1203EA209217300209EB
:10027800E4F50BF50CC2028008750B00750C01D271
:10028800023092FD2093121203EA20930C200304FB
:10029800D2038002C2033093FD2094121203EA2095
:1002A800940C200004D2008002C2003094FD2095F6
:1002B800121203EA20950C200104D2018002C20127
:0402C8003095FD224E
:10015600AF18EF3395E0FED3EF941BEE64809480E6
:100166005006750B00750C01D3EF941BEE6480945A
:10017600804011D3EF941DEE648094805006750B79
:1001860000750C02D3EF941DEE648094804011D369
:10019600EF941FEE648094805006750B00750C0377
:1001A600D3EF941FEE648094804011D3EF9421EE38
:1001B600648094805006750B00750C04D3EF94236D
:1001C600EE648094804011D3EF9425EE6480948091
:1001D6005006750B00750C05D3EF9425EE648094DC
:1001E600804011D3EF9427EE648094805006750BFF
:1001F60000750C06D3EF9427EE648094804011D3EB
:10020600EF9429EE648094805006750B00750C07F8
:10021600D3EF9429EE648094804006750B00750C2C
:020226000822AC
:10000E00E4F51BF51C12046020030302010C200012
:10001E0005200102800930005E20015B120156129C
:10002E0003CF1204ADE51875F00A120358FF7D05D3
:10003E001204177F027E001203EEE51875F00A1205
:10004E000358AFF07D061204177F027E001203EEF6
:10005E00AE0BAF0C7C007D0A12037A7D01120417E1
:10006E001204087D037F101204177D047F10120402
:10007E001712022802001620008E30018B1204E3A4
:10008E00300185E5144513606C1203CF1204ADE503
:10009E001875F00A120358FF7D051204177F027EB1
:1000AE00001203EEE51875F00A120358AFF07D0644
:1000BE001204177F027E001203EEAE0BAF0C7C0013
:1000CE007D0A12037A7D01120417120408AE13AFD3
:1000DE00147C007D0A12037A7D03120417AE13AF4F
:1000EE00147C007D0A12037AAF057D0412041712E8
:1000FE00022802008EC203C201C20002008EE4F585
:10010E000BF50CE50C25E0FFE50B33FE74362FF5F1
:10011E008274043EF583740193909000F07F0A7E02
:10012E00001204C9751B00751C01AD1C7F10120452
:10013E0017051CE51C7002051BC39407E51B9400F4
:08014E0040E81202280200162D
:0F040800AE0BAF0C7C007D0A12037AAF057D02AC
:10041700ED90045993851A82851983F0EF9004486B
:0F04270093851682851583F07F017E000203EE18
:1004AD00850E82850D83E4F07F01FE1203EE90A090
:0C04BD0000E0F51775F0648485F018224B
:1003CF00E50C25E0FFE50B33FE74362FF582740440
:0F03DF003EF583E4740193909000F07F0A7E0056
:1003EE00EF1FAA0670011E4A600FE4FDEDC3943C98
:0903FE007480948050EA0D80F334
:0104070022D2
:1002D80002000EE493A3F8E493A34003F68001F22E
:1002E80008DFF48029E493A3F85407240CC8C33327
:1002F800C4540F4420C8834004F456800146F6DFF6
:10030800E4800B01020408102040809004F9E47E88
:10031800019360BCA3FF543F30E509541FFEE493EA
:10032800A360010ECF54C025E060A840B8E493A3B1
:10033800FAE493A3F8E493A3C8C582C8CAC583CADC
:10034800F0A3C8C582C8CAC583CADFE9DEE780BE94
:01050D0000ED
:10035800C2D530F707B2D563F0FF05F030E70CB22D
:10036800D5F4048463F0FF05F080018430D502F4ED
:0203780004225D
:10037A00BC000BBE0029EF8DF084FFADF022E4CC67
:10038A00F875F008EF2FFFEE33FEEC33FCEE9DEC30
:10039A00984005FCEE9DFE0FD5F0E9E4CEFD22ED76
:1003AA00F8F5F0EE8420D21CFEADF075F008EF2FC0
:1003BA00FFED33FD4007985006D5F0F222C398FDB1
:0503CA000FD5F0EA224E
:00000001FF
